:020000041000EA
:1000000000B5324B212058609868022188439860DF
:10001000D860186158612E4B002199600221596106
:100020000121F02299502B49196001219960352056
:1000300000F044F80222904214D00621196600F024
:1000400034F8196E01211966002018661A6600F04E
:100050002CF8196E196E196E052000F02FF8012189
:100060000842F9D1002199601B49196000215960AB
:100070001A491B48016001219960EB211966A021F2
:10008000196600F012F800219960164914480160C1
:100090000121996001BC002800D000471248134993
:1000A000086003C880F30888084703B5996A0420EC
:1000B0000142FBD001200142F8D103BD02B5186610
:1000C0001866FFF7F2FF186E186E02BD00000240BE
:1000D000000000180000070000035F00212200005C
:1000E000F4000018222000A00001001008ED00E03C
:1000F00000000000000000000000000074B24E7A12
:1001000000200420F7010010C3010010C5010010F9
:10011000C1010010C1010010C1010010C101001097
:10012000C1010010C1010010C1010010C701001081
:10013000C1010010C1010010C9010010CB01001065
:10014000CD010010CD010010CD010010CD01001037
:10015000CD010010CD010010CD010010CD01001027
:10016000CD010010CD010010CD010010CD01001017
:10017000CD010010CD010010CD010010CD01001007
:10018000CD010010CD010010CD010010CD010010F7
:10019000CD010010CD010010CD010010CD010010E7
:1001A000CD010010CD010010CD010010CD010010D7
:1001B000CD010010CD010010CD010010CD010010C7
:1001C00000BE00BE00BE00BE00BE00BEEFF3058054
:1001D000103800BEF2EB8871A88E0010D88E001087
:1001E0003802001090A31AE71E481F49086006C88D
:1001F00081F3088810471D480068002801D019487D
:10020000F3E70DA40ECC002902D000F012F8F9E7B4
:100210001749184A002000E001C19142FCD116495B
:100220008847164988471649884700BEFDE701C937
:1002300001C29A42FBD37047D88E0010C000002044
:10024000581C002070AA00100000042000000420A8
:1002500070AA00100010042000100420000000000C
:10026000704700000000000008ED00E0000000D032
:10027000581C0020902B00209D510010D50200102A
:1002800095510010F8B5C04606480749091A8B1069
:10029000C90FC91810B5491003D0044B002B00D06A
:1002A000984710BD581C0020581C0020000000007A
:1002B000054B10B5002B03D00449054800E000BFF2
:1002C000FFF7E2FF10BDC04600000000182A002022
:1002D0008C830010F0B5CE46474680B591B005F04E
:1002E0009BF8052000F072F9062000F06FF9162047
:1002F00000F06CF90221152000F080F90CAA0BA97E
:100300000AA800F0D9FB002805D1012011B0C0BC1B
:10031000B946B046F0BD00F089FD0023284D294EB6
:100320002B70294B294F9846294B0DAC994609E073
:10033000022A03D143461B78002B2FD000212548E9
:1003400001F06EFF200000F093FD234A234B3100A3
:10035000089209930B9B182207930A9B6846069301
:1003600003F096FAA2682068616800F0F3FC2B782D
:10037000DAB2032B08D0032ADAD9042A0BD100F011
:10038000CDFA00232B70D9E73B78002BD6D0002381
:100390002B703B70D2E700232B70CFE7484605F067
:1003A0008DF8032300210E482B7001F039FF00F077
:1003B000D7F900210B4801F033FF00F057F9BDE7F2
:1003C000862B002058860010852B00208C2B0020C7
:1003D00090830010A08601009A9999999999B93F44
:1003E00050C3000020A1070030B585B004000D0007
:1003F00002F024F8002914D0FA220023920002F01F
:1004000055FE062C13D0162C29D0052C07D15E4A98
:100410001368C31AFA2B02D910606D072ED405B0E9
:1004200030BDFA21890002F003FE062CEBD1574AB9
:100430001368C31AFA2BF2D910606D07EFD5544C2C
:100440002378002B2FD101AD280000F011FD2B7A6D
:10045000082B00D98DE04F4A9B00D3589F464E4A47
:100460001368C31AFA2BDAD910606D07D7D54B4839
:1004700005F024F80021080002F09EFC484805F031
:100480001DF8484B1A78002A78D101321A70464B71
:1004900046481A7005F012F8454B464A1B681B0C7B
:1004A0001B041360BBE700F029FA002342482370C5
:1004B00005F004F8B3E76B7A404D023B5A1E9341B6
:1004C0000B225B42934311332B602B680133A6D080
:1004D000286800F0BFF90123394A23701370286897
:1004E00000F02EFA2968374805F06CF897E76B7A28
:1004F000324D023B5A1E93410B225B42934313330E
:100500002B60E2E7AB7A2D4D023B5A1E93410B2242
:100510005B4293430E332B60D7E7AB7A274D023B08
:100520005A1E93410B225B42934317332B60CCE757
:100530006B7A224D023B5A1E93410B225B4293433E
:1005400010332B60C1E76B7A1C4D023B5A1E93415E
:100550000B225B42934315332B60B6E7AB7A174D02
:10056000023B5A1E93410B225B4293430C332B6098
:10057000ABE70123114D5B422B60A6E70022124836
:100580001A7004F09BFF4AE7002A0020042A00208A
:10059000852B002070860010082A00200C84001093
:1005A000B48300108A2B00208C2B0020C8830010FD
:1005B0003400054034100540FC830010980F0020E3
:1005C000862B0020E8830010D883001010B50400AB
:1005D00000F01CFF0123D022A340120620009362EA
:1005E0000121002200F082FE012204212000024BA2
:1005F00000F090FE10BDC046E903001070B50D007C
:100600000421040000F058FE144AAB009446002276
:100610005B199B0063441A609A60DA60104A1A61A1
:1006200010225A600F3A1A6063081F2C11D8063244
:100630001A4093009B180B4A9B009A180849E4073C
:100640001268E41761400A4007498C4663441A6007
:1006500070BD03221A400832EBE7C0460000054097
:10066000FFFF00000C0005400C100540F8B54546A2
:100670004E46DE465746314BE0B59846304B002596
:1006800099464DE080242F4FA4043B682E4E6340D2
:100690001B0C1B0433604B465B5905209B4602F044
:1006A00099F803F085F85A468B21284B9200824630
:1006B000C905D05803F075F8011C504603F05DF8E9
:1006C000834603F09DF8C3B218009A4603F076F80B
:1006D000011C584603F04BF88321C90503F061F86B
:1006E00003F08EF85346C0B21B01194A1843194B48
:1006F000D8629A633B685C40174B240C5859240419
:10070000C117346001F08CFD3B681B0C1B04336087
:10071000124B58590435C11701F082FDAC2D06D09B
:1007200043461B78002BADD0002342461370F0BC2B
:10073000BB46B246A946A046F8BDC0468C2B002059
:100740006488001034000540341005401089001002
:10075000FF0F00000000054098870010EC86001095
:10076000F8B545464E46DE465746314BE0B598460D
:10077000304B0025994643461B78002B53D18024EB
:100780002D4FA4043B682D4E63401B0C1B043360AB
:100790004B465B5905209B4602F01CF803F008F815
:1007A0005A468B21264B92008246C905D05802F04A
:1007B000F8FF011C504602F0E0FF834603F020F8EA
:1007C000C3B218009A4602F0F9FF011C584602F025
:1007D000CEFF8321C90502F0E4FF03F011F8534670
:1007E000C0B21B01174A1843174BD8629A633B6883
:1007F0005C40164B240C58592404C117346001F096
:100800000FFD3B681B0C1B043360114B585904351A
:10081000C11701F005FD202DADD1F0BCBB46B2469D
:10082000A946A046F8BD002342461370F5E7C0462E
:100830008C2B002044880010340005403410054003
:1008400010890010FF0F000000000540CC8600104A
:10085000AC860010F0B5D6464F4646460400C0B5FB
:10086000431C3BD08025204E204BAD04336199467C
:100870001F4B204F98461B6805206B401B0C1B0428
:100880003B6001F0A7FF02F093FF8B211A4BA400FD
:100890008246C905E05802F084FF011C504602F070
:1008A0006CFF824602F0ACFFC4B2200002F086FF6B
:1008B000011C504602F05BFF8321C90502F071FF65
:1008C00002F09EFF4B46C0B224012043F062B363A6
:1008D00043461B685D402D0C2D043D60E0BCBA46CC
:1008E000B146A846F0BDC04600000540FF0F00001D
:1008F000340005403410054010890010044B054AAF
:100900001B681B0C1B0413600022034B1A707047FA
:100910003400054034100540852B00200122074B90
:10092000524201204042C1171A605A609A60DA6050
:100930000022186159619A611A777047A00F002050
:10094000194B10B59A69052A19DD012252425A60E5
:100950009A60DA601A615A6100221A7702281ED062
:10096000012201204042C11752421A605A609A6027
:10097000DA600022186159619A611A7710BD0B493B
:10098000940061588142EBD1013219519A61062AD3
:10099000F4D1053A1A77064B01321A70EEE70122BC
:1009A00018609A61EAE7C046A00F00209486001004
:1009B000862B0020F0B5CE4647469946802380B569
:1009C0005B0287B002931300063390461B03D201EB
:1009D0001343334A02AE13407360C0231B030493D6
:1009E0004B465A01F8239B001A4090239B05134362
:1009F000F3602C4B0F00C118090D06310500C9B278
:100A0000484600F059FC01234A460093390028006B
:100A100007F062FB052001F0DDFE02F0CFFD224B66
:100A2000002202F04AFD02F011FEEC21890502F0DD
:100A3000A1FE814602F0E4FE84B20023002C0ED019
:100A4000200002F0B5FE011C484602F090FE87210E
:100A5000C90502F0A6FE02F0D3FEC3B21B022404B5
:100A6000B2681C43114B39001A40114B2800134344
:100A7000B36072680F4B02941A4080239B021343A9
:100A800073604246330007F081FB0123BB402A68B4
:100A900013432B6007B0C0BCB946B046F0BDC0469A
:100AA000FFFFFF9F0000E0AF80845E41FFFFF50184
:100AB00000000270FFFF01FFF0B50500FA2085B0CD
:100AC0000F00160003AB02AA01A9400201F064FF67
:100AD000041E06D1124804F0F1FC0024200005B0E9
:100AE000F0BD039A0299019801F07AFE0D480E4973
:100AF000286007F075FA01213060286807F054FA81
:100B0000386032680100531C06D0431C04D0072310
:100B10002868FFF74FFFE1E7044804F0CFFCDCE76B
:100B20003C84001000002050A08900105C8400105C
:100B300082B0F0B54546DE4657464E46E0B589B030
:100B40001393189B069098461A981B9912920023AB
:100B5000002202F00BFD002800D0EAE01A981B9951
:100B600000227A4B02F018FD002800D0CFE01A9E38
:100B70001B9F129C139D002220002900744B02F041
:100B80000BFD002800D0C5E0002200232000290032
:100B900002F0ECFC002800D0CEE02000290000226A
:100BA0006B4B02F08AFC00900191149C159D002271
:100BB00020002900664B02F0EFFC002800D0B3E0D3
:100BC000002200232000290002F0D0FC002800D0E1
:100BD000B8E02000290000225D4B02F06EFC02907C
:100BE0000391169C179D002220002900584B02F00B
:100BF000D3FC002800D092E000220023200029002E
:100C000002F0B4FC002800D099E020002900002266
:100C10004F4B02F052FC049005910122199B1033B6
:100C20009A40002392469B46199B04339B000793EE
:100C300005215846494202F0D3F905210400051D5B
:100C4000584602F0CDF9022294430B00033401D040
:100C50000232531AA9004919C918069BC9009C46BB
:100C6000029A039B61440C684D682000290002F041
:100C70003EFC32003B0002F03AFC0022344B02F012
:100C800036FC02F0DBFC03069946009A019B20002B
:100C9000290002F02CFC32003B0002F028FC00226C
:100CA0002B4B02F024FC02F0C9FC4B46C0B20004FE
:100CB00003439946049A059B2000290002F017FC83
:100CC00032003B0002F013FC0022214B02F00FFC2B
:100CD00002F0B4FC4B4652464146C0B200021843F3
:100CE0004B681A42FCD101239C46E3445B46924682
:100CF000079A88465050192B9AD109B0F0BCBB46D0
:100D0000B246A946A046F0BC08BC02B0184700266F
:100D10000E4F2EE700230D4C0093019445E700236E
:100D20000A4C0493059478E70023084C029303943B
:100D300057E7002600271CE7002000212FE70020AE
:100D4000002164E70020002145E7C0460000F03F95
:100D500000E06F4010B5130A110CD2B28CB0DBB2B8
:100D6000C9B2082A32D821489200825897460229EF
:100D70002ED01F4C169A179B06920793159B10A90D
:100D80000593149B10226846049302F081FD200015
:100D90000E9A0F9BFFF7CCFE0CB010BD022923D09A
:100DA000144CE7E7022B1DD0134CE3E7022B17D0BE
:100DB000124CDFE7022B11D0114CDBE7022B0BD0DA
:100DC000104CD7E7022905D00F4CD3E70F4CD1E7E1
:100DD0000F4CCFE70F4CCDE70F4CCBE70F4CC9E7DB
:100DE0000F4CC7E70F4CC5E70F4CC3E7B88900109D
:100DF00038150020E819002018120020C81600201D
:100E00008810002058180020A8130020B01A0020D5
:100E100070140020E012002090170020C00F002066
:100E200000160020501100202019002010B507F0F6
:100E30009FF81F211B2000F03FFA002200211B20F9
:100E400000F054FA00211B2000F0CCFA1F211A20D8
:100E500000F032FA002200211A2000F047FA0021A7
:100E60001A2000F0BFFA1620FFF7B0FB10BDC046F5
:100E7000E021F0B5C646584AC901136800B50B40D9
:100E8000564904000B600421554B1960FC3113686E
:100E90000B42FCD08023556812685B015340E0226E
:100EA000D20113404D4AAEB2668013600422802105
:100EB0004B4B49001A60484A13680B42FCD05368F8
:100EC000832299B21B0421801B0C120191423FD254
:100ED000D31A5806C01A8000C018C000C01A414971
:100EE000800002F07DF8804643461FB283232D0424
:100EF000A7802D0C1B019E423ED25B1B5806C01AD8
:100F00008000C018C000C01A3649800002F068F89E
:100F1000FA1703B2BF185740DA17E3809B18534003
:100F2000BFB242469BB21E281CDD1E3240DB424649
:100F30001E2A4CDC012222720222BA429241524203
:100F4000627202225A2B2ED9A27280BCB846F0BD22
:100F5000254A6420944663445843244902F040F8EB
:100F60008046C1E71E3010DA1E322EDB42461E2AB2
:100F70002FDC02222272DFE71B4B64209C46654473
:100F800068431A4902F02CF8C2E71E3216DB4246CB
:100F90001E2A02DC00222272CEE7042222725A2F7D
:100FA00010D90222627202229A4292415242CBE747
:100FB0000522227202225A2FC2D8BDE703222272D2
:100FC0005A2FEED801226272EDE70722F1E70622DE
:100FD000EFE70822EDE7C04600C0044000D004401F
:100FE00000E0044025080000D0F7FFFFBD07000027
:100FF000D0231B061B68AC4A9900F0B5DE468B4631
:1010000051585A4253412F2257464E4645465B425D
:1010100093439A46A54BE0B59C4683B000260191C8
:10102000E244002938D0A24B99465246F3080833CF
:101030009B009D580123340098460836002D22D08D
:101040000F212000294001342D09002919D04B46D9
:101050005A469A580300C240203BDB1713404246D1
:1010600013420CD107220F000240920097403A0031
:10107000C308904F3C339B00DA51019B9847002DE9
:1010800001D0B442DCD3202ECFD103B0F0BCBB469C
:10109000B246A946A046F0BD854E5F4600210F230B
:1010A000B346CC0822005046083292001258002A5B
:1010B00000D1D0E0180010408046100913421AD029
:1010C0005D46ED59A94620256D42AC468C446546E7
:1010D000ED17AC464D46CD40A94665464E463540D7
:1010E0000126354204D14646724D3C34A400665177
:1010F000002800D1AFE01C000440A446140A0342BB
:101100001AD0481C80465846C059464681464D462E
:101110000800F5401F38C01728400125284208D193
:1011200065462D01AC46F0086646624D3C308000B5
:101130004651002C00D18EE0180020408446100B50
:10114000234211D08C1CA0465C46E4594646A14679
:101150004D460C00F5401E3CE4172C4001252C4266
:1011600000D182E0002876D01C000440A446140C74
:10117000034210D0C81C80465846C0594646814696
:101180004D460800F5401D38C0172840012528426B
:1011900075D0002C5FD0180020408046100D2342EF
:1011A0000ED00C1DA4466546414CE459EC40A146C6
:1011B0000C004D461C3CE40F2C426AD000284AD05B
:1011C0001C000440A446140E034218D0481D80465B
:1011D00045463748C059E840814608004D461B380F
:1011E000C00F284209D165462D05AC4640466646EB
:1011F000C008304D3C3080004651002C2BD01800E8
:1012000020408446120F23422AD029488C1D814653
:10121000C059E0408046080045461A38C00F2842B1
:1012200006D1E0086446234D3C302406800044513A
:10123000002A10D04846C059CC1DE0408446080022
:1012400065461938C00F284205D1E0083C30194CDA
:101250001207800002510831202900D021E714E74D
:10126000002AF8D012488146E4E765462D02AC46D4
:10127000F40866460F4D3C34A400665172E765469B
:101280002D03AC46F00866460A4D3C3080004651BE
:101290007FE745462D04A84664464646E408054DCA
:1012A0003C34A400665189E780250020304101408C
:1012B000482A002000400140094A83009A1810B5CE
:1012C00014684022544080322240064CC000A4469C
:1012D00063441A60044B9C466044416010BDC046A4
:1012E00004C0014004D0014000400140074B800091
:1012F000C3181B68C90092000A435A400C231340CC
:10130000034A9446604403607047C04604C00140ED
:1013100004D00140F8B545469846D0231B06DE466A
:101320001C689B462B4B57469A46A3004E4699464F
:10133000E0B5534616004A469B5807000D00002BA7
:1013400034D04346002B3FD053464A46414699503D
:10135000D0231B061C6863425C412F220720634296
:1013600093431D4A38409446FA0811008000854096
:101370003C311A486344890092000D509B18002E9E
:101380000ED0802292019446634401210D201D60FD
:1013900000F034F9F0BCBB46B246A946A046F8BD01
:1013A000C0229201944663441D60F3E74346002B3C
:1013B000D1D0534641460D2099500022084900F0F3
:1013C0007FF95B461C68C6E70D20054900F072FAFC
:1013D000BAE7C0468025002030410140004001406E
:1013E000F10F00108000002905D0064B9C464023D9
:1013F000604403607047044B9C4640236044036094
:10140000F8E7C04604E0014004F001400123D02287
:101410008340120693629361094A83009A18116807
:101420004022514080320A400649C0008C46634445
:101430001A60054B9C460523604443607047C046D4
:1014400004C0014004D00140004001408023DB057E
:101450001868000F7047C0460FB400B5084883B045
:1014600004F02CF8049B002B07D005A9180001916B
:1014700003F076FE034804F021F8012003F088FE13
:1014800074840010F8830010EFF3108072B6034AE2
:101490001368002BFCD0BFF35F8F70472C0100D086
:1014A000BFF35F8F0022024B1A6080F310887047F1
:1014B0002C0100D070B5EFF3108C72B60D4D2B6877
:1014C000002BFCD0BFF35F8F0724CB08C618C05C8D
:1014D00001230C40A3401C000440034207D11843E1
:1014E0003070BFF35F8F2C608CF3108870BD1000DC
:1014F000FFF7B2FF2C0100D0F8B54746CE4688462C
:1015000080B5EFF3108C72B61C4D2C68002CFCD00B
:10151000BFF35F8F9A4222D807210126894602E055
:101520000132934218D34D4637001540AF40D408DE
:101530000119045D2742F3D110003C430C70BFF346
:101540005F8F00220D4B1A608CF3108800280EDB91
:10155000C0BCB946B046F8BD01204042EFE7BFF33A
:101560005F8F00232B608CF310880120404243469C
:10157000002BEDD00898FFF76FFFC0462C0100D07C
:10158000044A1078431CDBB2172B00D910231370C8
:101590007047C046781B002010B5064B064C82B041
:1015A0000100009318221F232000FFF7A5FF02B0BF
:1015B00010BDC04684840010982500200021044BF3
:1015C000044ABFF35F8F02C39342FAD17047C0460B
:1015D000000100D0800100D0054B064A1360064A86
:1015E000136053609360D3601361536193617047DC
:1015F0008080808000E400E004E400E01F231840C5
:101600001E3B8340002905D0C021044A49005350A5
:1016100013607047802201498B50FAE700E100E037
:1016200001228240034B1B6813405A1E9341D8B2DB
:101630007047C04600E100E001238340014A136087
:101640007047C04600E200E0064B10309B68800007
:10165000C358054A00209B1A2F229A424041C0B22B
:101660007047C04600ED00E07C1B002070B50D0007
:10167000EFF3108672B60F4A1368002BFCD0BFF34D
:101680005F8F0D4B10309B6884001B590B4A9342AF
:1016900003D09D4201D001F0C5FB074B9B681D5153
:1016A000BFF35F8FBFF35F8F0022024B1A6086F398
:1016B000108870BD240100D000ED00E0CD010010C5
:1016C000F0B557464E46DE464546E0B585B00600C5
:1016D00000911700EFF3108B72B66A4A1368002B63
:1016E000FCD0BFF35F8F0025674B5D579A46002DF6
:1016F00000DAA9E06B00654C01935B199B009846EA
:10170000A146C1444B4652469B7910361370604B3C
:10171000B6009B6899590B1B2F2B33D95D4B99420F
:1017200000D0ACE0019B42469C465B4B6544AD005B
:1017300063535A4B0232A218043B9B1A1B05584AAA
:101740005B0D651913436B80564B0121AB80FF2362
:10175000AB71009BEF71AB604B460B4319004C4BD8
:101760009B689951BFF35F8FBFF35F8F0022454B9A
:101770001A608BF3108805B0F0BCBB46B246A94690
:10178000A046F0BD01200A008243D3798C46BB42BB
:1017900031D84546130044491B1B5B415943090D91
:1017A0003D4B63533D4B02356519043B5B1B1B05E9
:1017B0003B4D5B0D2B43AA464D466B800425AC4642
:1017C0005546E044131F44441B1B1B055B0D1D4382
:1017D0004B46997100999D8099604946DF71334B62
:1017E00001431360BBE75800C01880002018C1797E
:1017F000B9422FD902000623D356002BF3DA029305
:101800002B4B61460393131D9A4604235B429C466F
:10181000E14450464B461B1A1B055B0D9C46204B72
:10182000957198466346404603439380019B5A193D
:101830009200039BA418A380029B1C4AA371009BE7
:101840002260E771A3608AE701F0ECFA00255346B5
:101850005D574FE7908802934005131D9A46031584
:1018600061469C464046D444634604302018181A0A
:10187000E0230005400D1B0218430390C5E701F06B
:10188000D1FA4FE7240100D0872B00207C1B0020D9
:1018900000ED00E0CD01001000A1FFFFAC1B002017
:1018A00000E0FFFF01BDFFFFAAAA0000014880473A
:1018B00001BD0000F0B5DE4657464E464546E0B550
:1018C0000C0083B0EFF3108872B6634A1368002BE4
:1018D000FCD0BFF35F8F614B61499A6803001033FE
:1018E0009F00D55901938D4243D0A54254D05D4EFF
:1018F000AA1B2F2A3DD85C4B9B461B6899460123A7
:101900001A009C4682404B4613401F22994663466C
:10191000024093409A4680225B4650469850BFF35F
:101920005F8FEFF305839B46002B37D0019B5B4510
:1019300001D001F077FA01232A009A43906884428B
:1019400008D176E04B005B189B00F318986884423E
:1019500036D01A00062151560029F3DA844254D0B9
:101960004B46002B27D0C02251463F4B5200995086
:1019700019603A4B9B68DD51BFF35F8FBFF35F8FF8
:101980000022354B1A6088F3108803B0F0BCBB46C8
:10199000B246A946A046F0BD0D00EAE72A0063461C
:1019A0009A4390688442D5D106201056130000282F
:1019B0000ADA0D0031E0802351462B4AD150D8E796
:1019C00006201856002821DB4200111889007418DF
:1019D0008B46A1689960E179D971062161569971A8
:1019E000002924DBA488F11A640524155C44091934
:1019F00009051E4C490D2143998013181C4A9B0070
:101A00001178F31899711070AAE71300594600294C
:101A100014D1FF3191711749918015490A789A7153
:101A2000154A9B1B5B415A43120D0A7098E71149F6
:101A3000E2E70620105613000028C5DA0F4A1049C5
:101A4000D21A083A5002400D014399800D495208BC
:101A50000A43DA8084E7C046240100D000ED00E0AC
:101A6000CD0100107C1B002000E100E000E0FFFF42
:101A7000872B002001BDFFFFAAAA0000B61B002093
:101A800000F0FFFF00F8FFFF70B501240443EFF3FF
:101A90000581EFF3108C72B6214A1368002BFCD03D
:101AA000BFF35F8F1F4B05001F4AED1A6D416A435C
:101AB000120D1E4D8900AE6852B27658A6421CD057
:101AC0000621595691421CD012215956914222D0DA
:101AD0001E215956914220D02A2159560324914261
:101AE00010D0134B19781A708171BFF35F8F0022E9
:101AF0000B4B1A608CF3108870BDAB680D4C5C50BA
:101B0000EFE700246100091989005B18FF21997132
:101B100009499980E5E70124F4E70224F2E7C04689
:101B2000240100D07C1B0020AAAA000000ED00E0E8
:101B3000872B0020CD01001001BDFFFF10B5084B21
:101B4000084C82B001000093002205232000FFF71B
:101B5000D3FC002801DB1F23181A02B010BDC046B9
:101B6000A08400108D2B0020024B9C46614489000C
:101B7000016070474000003470B5114C114DAC420B
:101B80000FD2FF262368002B0CD0FFF7F9FC0100D1
:101B90002000FFF7E9FFA680BFF35F8F0834AC4257
:101BA000F0D370BDFFF7ECFC01002000FFF7DCFF75
:101BB0002671BFF35F8F0834AC42E3D3F1E7C04630
:101BC000501C0020581C002010B50400FFF7D8FC62
:101BD00001002000FFF7C8FFFF232371BFF35F8FD1
:101BE00010BDC04610B504000120FFF7D5FC034B23
:101BF000C3189B002360BFF35F8F10BD400000340B
:101C0000034B9C46614489000160BFF35F8F7047BE
:101C1000400000340A4B1968EFF3108072B60A686E
:101C2000002AFCD0BFF35F8F1B68BFF35F8F0022D9
:101C30001A6080F3108840BF002000217047C04622
:101C40005C2B0020F0B5DE4657464E464546E0B5D3
:101C500087B0EFF30583032201251A4095409100D8
:101C60008846A946B34B03925C58B34B1D60B34BF7
:101C700004934B46B24843630823E55E002D37DAF0
:101C8000A3881BB2002B00DBADE0A379002B00D0B2
:101C9000EEE00823E05E002820DB430062691B18A9
:101CA000DB00D3189E68DD68731C00D111E1A448E5
:101CB00001004144826A0B69B71A9B1A9F4215D3EF
:101CC0000123026A039883401A420FD09C4800F017
:101CD000ADFB8D4202DCCCD18642CAD940BF07B0F1
:101CE000F0BCBB46B246A946A046F0BD0E61EDE78A
:101CF00062696B0092465B19DB009A4453469E680A
:101D0000DF6800F093FB8F42BADC00D103E1002FC3
:101D100000DAE8E05246534652691B699346049A3A
:101D2000934200D1D9E052460821605E52880004F7
:101D3000594610439847009001910099019A0B0071
:101D40001000134300D1CEE013000A00B61A9F41E1
:101D5000002806DB7A4800F069FB009E019F3618D8
:101D60004F4153469E60DF6000229A5E002A00DAEF
:101D700086E7530099186069C900411802938B687F
:101D8000C9689B46B94200DD7AE702D1B34200D967
:101D900076E708239C46A444059565462281A4461F
:101DA000029B2C0006E053009918C90041188D6869
:101DB000C968AB469B18DB00C318B94206DC00D1EA
:101DC000B3E01C000023E25E002AECDA2300644644
:101DD0009C4653461A806346059D1D80A3881BB20E
:101DE000002B00DA51E72269EFF3108172B6136815
:101DF000002BFCD0BFF35F8F0123A7885B42A38039
:101E00003FB22369BFF35F8F00221A6081F310880D
:101E1000002F00DA39E72300083322009A4666696A
:101E20007B00DB19DB00F318996850468C460824C8
:101E3000115FDD68002910DB029306E0AB4244D05D
:101E40000023E15E2000002906DB4C006418E4005A
:101E50003419E368AB42F1DD029B078000201F5E6E
:101E60001980002FDCDA1400A379002B00D110E7D1
:101E70000023A37126000823E15E08364B1C00D125
:101E80002CE70800A246656902E03E004B1C1AD010
:101E90004B005B18DB00EF180A008C46E95E7B887C
:101EA0001BB2002BF1DA01235B42DC17BB60FC6044
:101EB000824205D0534631801B893B8053461A81AC
:101EC00060464B1CE4D15446E5E6A3686345B7D9A8
:101ED000C2E76B1C00D0EAE6F8E65B4658461B6991
:101EE000984700281BD153461B8822692381EFF3B2
:101EF000108372B611680029FCD0BFF35F8F514682
:101F000062880A8022696580BFF35F8F00211160BB
:101F100083F31088B4E6864200D8F8E6B0E65B4664
:101F20001A685B680092019307E7B34500D848E759
:101F30004CE7C046382A00203C700540451C001084
:101F40000040054070B52E4C2569002D04D00A21B3
:101F50002C48FFF709FE70BD2B4E0321300000F026
:101F60005BFAE660FFF70CFB284B03229C46D0236C
:101F700022701B061B6801216370254B6044A3601F
:101F80000F23800020610220638063694942A180A1
:101F900019800231198647311D83585218315A521F
:101FA00075325C3999521832013199521832013127
:101FB0009952183201319952083518329D52023126
:101FC000183299521832013199521832013199520E
:101FD00018320131995218320131995218320131B7
:101FE00099520C4B0C49DC6001303562FFF73EFB27
:101FF00001210320FFF702FB084B1D60A7E7C04645
:10200000C41B00205C2B0020004005404000003431
:10201000FFFF1000382A0020451C001038600540E2
:1020200000487047C41B0020F8B51F0008AB1B78A0
:1020300004001600002B08D100F000FA32003B002B
:10204000121A8B41002B00DA52E02269EFF3108064
:1020500072B61368002BFCD0BFF35F8F0223E15EE2
:1020600063694A005218D2009B182269002936DBA6
:102070001D886580BFF35F8F0025156080F3108891
:10208000069A9E60DF601A61079A5A615A88013287
:102090005204520C101C002A1FD082B2588008042F
:1020A00010432669EFF3108772B63268002AFCD01D
:1020B000BFF35F8FA2881A80A1802369BFF35F8F6F
:1020C00000221A6087F310880A4923788C4601326F
:1020D0009A40E36863441A60F8BD0120DDE7BFF36E
:1020E0005F8F0023136080F3108801204042F3E7E4
:1020F0000020F1E73C20000070B501000469EFF317
:10210000108C72B620680028FCD0BFF35F8F0220CD
:102110000D5E4C6968004019C00024180869002D44
:1021200036DB26884E80BFF35F8F002606608CF377
:102130001088E36063880498013320615B0405988C
:102140005B0CA26060611A1C002B1FD093B22804A4
:10215000628018430A69EFF3108C72B61368002B83
:10216000FCD0BFF35F8F8B8823808D800B69BFF31A
:102170005F8F00221A608CF310880B7801329A402E
:10218000CB6808498C4663441A6070BD0122DDE7C4
:10219000BFF35F8F002303608CF31088012040425F
:1021A000F3E7C0463C20000010B543890A1493426F
:1021B0001ADD53009B184269DB00D3180469EFF362
:1021C000108C72B62268002AFCD0BFF35F8F5A8849
:1021D000090494B2090C8A4208D00369BFF35F8FE7
:1021E00000221A608CF31088002010BD8022120299
:1021F00014435C80012302698371BFF35F8F002168
:1022000011608CF31088044902788C469340C268B0
:10221000012062441360E8E73C20000040787047EA
:10222000F0B5C64600B582B004000D0000F006F916
:1022300024184D41002D02DA01242F4D6442062658
:102240007642F71736196F41AF4214D811D000F01B
:10225000F5F832003B00121A8B41002B15DC002BE5
:1022600046D02000290000F027F902B080BCB84613
:10227000F0BDA642EBD90026002700F0DFF83200BF
:102280003B00121A8B41002BE9DD00F0D7F8320039
:102290003B00121A8B41002B0ADB00230193174BE2
:1022A0003200009316483B00FFF726FF0130D8D0DC
:1022B00000233900B0469C46124A1348536A99429B
:1022C00004D8966A4645CCD29942CAD10668EFF343
:1022D000108772B63368002BFCD0BFF35F8F0368A2
:1022E000BFF35F8F66461E6087F3108820BFE5E767
:1022F000002AB6D0C9E7C046FFFFFF7F151C0010BB
:10230000C41B0020004005405C2B0020F0B5574660
:102310004E46DE464546E0B506000F0085B0EFF3B9
:10232000058399468B46002B12D0384900204B6A12
:10233000BB4206D38A6ADB1B591E8B41B242404125
:10234000184305B0F0BCBB46B246A946A046F0BD56
:102350002F4B9A46DB68984653461B7840460393BA
:1023600000F064F84246039B040004339B009B5832
:102370000D001B1A39003000001BA941894510DCF3
:102380000DD020BF214A0020536A5B45D9D3926A01
:10239000DB1B591E8B41B24240411843D1E78342B7
:1023A000EFD900F04BF832003B00121A8B41002BA2
:1023B0001ADB00230193174B3200009350463B0079
:1023C000FFF79AFE011E0FDD104B5A6A5A451BD3C8
:1023D0009B6AB34216D35046FFF7E6FE0B4A002035
:1023E000536A5B45ADD3D2E7084A0020536A5B4588
:1023F000A7D30020926ADB1BB24240415A1E934190
:1024000018439EE75A45E6D120BFE4E70040054067
:10241000C41B0020151C001010B5024A0248FFF72B
:1024200049F810BDBC8400109C2500200300416ABF
:102430000A00986A596A8A42FAD17047034B596A6E
:102440000A00986A596A9142FAD1704700400540E3
:1024500070B504000D00174A536A1900966A536A52
:102460008B42FAD13000190024184D41AB4216D8E6
:1024700013D0104B2A005B6A9D4203D90D494B6A69
:102480009342FCD3934207D10A4A02E0516A99422F
:1024900002D1916AA142F9D370BDA642E9D9054B98
:1024A0005B6A1C005A1CEFD0012201246442E5172C
:1024B0005242E3E700400540064A536A9942FCD87D
:1024C00007D1044B02E05A6A914202D19A6A9042C3
:1024D000F9D8704700400540F8B5040006200D000B
:1024E00000F078F9002844D0374B3849E3185A1ED9
:1024F00093418022120494465B429B0D344A9B0513
:1025000063441360334A136018000A689043FBD198
:102510002D4B314AE31859424B4180215B00490061
:102520000620995200F056F92900C00000F080FD05
:102530000130C3091ED1402701226262A362266BCB
:10254000F30722D4E36A254B0620E51800232B600D
:10255000266300F03FF93900800000F069FD702328
:10256000E26A5A400E3313402B601D4B2363032352
:10257000A364F8BD1B4A93421ED900231A4A1B4F7D
:102580006262A362266BF307DCD5194B144AE31889
:102590001A60656AA36A0620AD01ED1800F01AF909
:1025A000144900F045FDAD020100280000F040FD97
:1025B0000021FFF74DFFC5E74006800E9F011A007E
:1025C0003F180300B9E7C0460080FCBF08C00040C8
:1025D00000E0004000F00040682B00202C100000BC
:1025E00001030000FEFF0000FFFF0000C0FF3F00EE
:1025F000303000004E0E0000F8B5DE464E4657461D
:102600004546E0B58B4605000A991800160000F013
:102610000FFD0A9B6C001F02324B64199C46A400FC
:102620006444636881469F4200D967602B1FDBB218
:102630009846012B30D9C02380229B01E318120158
:102640001A60294BAD0059599A4600291BD17301D4
:10265000E026226853401E40802342465B01E31877
:102660001E60012A30D9802380229B01E3181201C9
:102670001A6053464A4667605A51F0BCBB46B246A0
:10268000A946A046F8BD586900F0D2FC01304300CD
:102690001B18033BFDD2DAE75B46012BCBD1C023ED
:1026A00003229B01E3181A60023AA3681A42FCD085
:1026B0007301E0262268AD0053401E4080230A4A81
:1026C0005B019246E3181E605A462168514003227E
:1026D0000A401A6001225B469A40A3681A42FCD065
:1026E000C1E7C04600800040A4250020F0B5464662
:1026F0004F46D646C0B51F00344B44009C462418B4
:10270000A4006444636888461600FF2B02D8802327
:102710005B006360031FDBB29A46012B30D9C023F4
:1027200080229B01E31812011A60294B8500595938
:10273000994600291BD17301E026226853401E40B0
:10274000802352465B01E3181E60012A30D98023A2
:1027500080229B01E31812011A6080235B006360F2
:102760004B465F51E0BCBA46B146A846F0BD586939
:1027700000F05EFC013043001B18033BFDD2DAE79A
:102780004346012BCBD1C02303229B01E3181A60DF
:10279000023AA3681A42FCD07301E0262268850041
:1027A00053401E4080230A4A5B019146E3181E6095
:1027B00042462168514003220A401A6001234246E2
:1027C0009340A2681342FCD0C1E7C046008000409D
:1027D000A4250020014B8000C0587047A42500208C
:1027E000F0B54746CE4680B55B4B16005A680700E9
:1027F000884683B0FF2A02D8802252005A60032202
:10280000564B554D1A600123AC682342FCD0202260
:1028100029685140C0320A4051490A602A684E4D29
:102820005A40032313400B600223AC682342FCD0C0
:1028300080224C4B12011A6080235B006B604A4C73
:1028400099464A4B3A006361012143464848009645
:1028500000F0D8F941463800714300F0E9FB454BE0
:1028600005005A68FF2A01D84A465A608022424B26
:1028700012011A602169002907D0606900F0D8FBB5
:10288000013043001B18033BFDD2E023394A3B488B
:1028900011680B40036002231168594001330B405B
:1028A0000421036093681942FCD08021344B090154
:1028B00019608021334B490051602361264B5A68CF
:1028C000FF2A00D8596003220121244B1A60224AB2
:1028D00093681942FCD0E02310680340204803604D
:1028E000126803234A40022113401B4A0360936885
:1028F0001942FCD080211B4B090119608021224B19
:102900004900516065615A68FF2A00D859608022E9
:102910001E4B12011A60A169002907D0606900F0FE
:1029200087FB013043001B18033BFDD240231649AF
:102930000A685A40A0331340154A13608022154B91
:1029400012011A6080235B004B60084BA36103B047
:10295000C0BCB946B046F0BD3C8000403CB0004031
:102960003C9000403CA00040A4250020006CDC020C
:10297000008002403080004030B000403090004085
:1029800030A00040001BB7004880004048B0004025
:102990004890004048A00040F0B54E46DE465746FD
:1029A0004546E0B51600924A85B09346A0225200F3
:1029B00091465A4603969B46060001920291019B5E
:1029C0008C4A93420DD901235B429C468A4AE144DA
:1029D0009446019B634401934B460F2BEFD100209B
:1029E0008EE01F00854B07249C4667442300634309
:1029F00038001900984600F01BFBA246651E86426F
:102A000050D06C433800210000F012FB864259D0B0
:102A10006B1E9846012D00D1D3E05346E41A2100E5
:102A2000380000F005FB864258D0AB1E9846022DB8
:102A300000D1B9E05346E41A2100380000F0F8FA5A
:102A4000864264D0EB1E9846032D66D05346E41AA6
:102A50002100380000F0ECFA864200D172E02B1F12
:102A60009846042D00D174E05346E41A2100380042
:102A700000F0DEFA864200D17DE0052D00D17FE036
:102A800053463800E11A00F0D3FA06248642ADD14D
:102A90000029ABD1C8465B46D14601250298039E6A
:102AA00026E0A8464146380000F0C2FA002900D1CD
:102AB00097E0651EA2466C433800210000F0B8FA8A
:102AC0008642A5D12100380000F0B2FA00299FD13A
:102AD000C8465B46D1460298039E09E00029A4D16E
:102AE0005246C2465B46C846554691460298039EEA
:102AF0004246434951434A460160012032601D600D
:102B000005B0F0BCBB46B246A946A046F0BD0029C0
:102B1000E6D0EB1E9846032D98D1092138000324F6
:102B2000092500F085FA8642BBD003230621380030
:102B30009A460334073D00F07BFA8642C2D0012357
:102B400098466AE70029CBD02B1F9846042D00D069
:102B50008AE704240C353B099E42A2D004230C21B1
:102B600038009A4608340D3D00F062FA8642A9D03A
:102B70000223984651E70029B2D0052D00D07FE707
:102B800019213800192500F053FA864226D0142165
:102B9000380000F04DFA052314249A4686421BD0D3
:102BA000023B9846153D38E7042302249846BB08AB
:102BB0009E4200D176E7A246013D7B089E4200D1AD
:102BC00080E7B74200D0FEE60122C8465B46914648
:102BD00001250298039E8BE7042573E7A846052488
:102BE00060E7C8465B46A14625000298039E7FE742
:102BF00050262F0050F80C0020D1FFFFB0710B00C1
:102C0000001BB700F8B5040021481E0017000D0096
:102C100000F00EFA0100380000F00AFA069B3604B4
:102C20001B031E432368002B20DB1A4B1A49E318B1
:102C30005A1E93418022920194465B421B0B174A15
:102C40001B0363441360164A13601F000A6897430E
:102C5000FBD1144B2560E2182123A0601360236888
:102C6000002BFCDA0823E6601360F8BD3F232268DE
:102C70001340AB42D9D1A3681B051B0D8342D4D1AD
:102C8000EE22E368D2021340B342CED1EDE7C04654
:102C9000001BB7000040FDBF08C0004000E000403E
:102CA00000F000400430000010B580241C4BE40507
:102CB0001C6000281AD001231A4C18431A4BDC61FF
:102CC0001A4C44401C62596298628021144BC90519
:102CD0001960174817490860E021C9041960002AE3
:102CE00007D18022144B12061A6010BD0E4BD8611A
:102CF000EBE753019B1A9B009A18802312015B0497
:102D00009A4209D213000D490B60074B5A6080228A
:102D1000094BD2051A60E8E7094B1A00F3E7C046F1
:102D200000B00540D3C007B0008005402D3FF84FEC
:102D3000FCFF01000820014000A00540102A0020EF
:102D4000FFFFFF008023024A9B000B43D3627047C2
:102D500000800540002310B50100988A1B8B98471E
:102D600010BDC046162310B50100188802331B8819
:102D7000984710BDF8B54746CE4680B50F1E18D00F
:102D800014239946043304000025012698464B4637
:102D90001888434621681B88984701C4431E984100
:102DA00001350640AF42F2D13000C0BCB946B04652
:102DB000F8BD0126F8E7C046002370B504000D00F9
:102DC000988A03491B8B98472900030020009847E5
:102DD00055420000002370B504000D00988A054993
:102DE0001B8B984703000020002C01DB0130A04022
:102DF0002900984755420000AA23064A1B01136088
:102E00008D235B00D3600449044B19605368002B89
:102E1000FCDA70470040024000B0FA000060024057
:102E20007047C04610B50148FEF716FBE08400105D
:102E300070B5074D074EB54209D20024013E761BFE
:102E4000B60808CD984723000134B342F9D170BDCC
:102E50004883001084830010054B064A06491A6017
:102E6000064A074B1A6010000B689843FBD1704765
:102E700000E00040BFCDFBFE08C00040FE7F3C00EC
:102E800000F00040044BDB6C002B03D18022034B8D
:102E9000D2021A607047C046000011504C201150F9
:102EA000044A054B1A60054A1368DB018033FBD1E5
:102EB0007047C046FFFFFF0100F0004008C000401F
:102EC0004022034B9A675A671A67DA667047C04612
:102ED00000F0014010B5FEF771FB10BD70B5044D58
:102EE000044CA968C022200000F0D2FCAC6070BD88
:102EF00000ED00E000000020002310B5294C82B056
:102F0000A367FFF779FF0122274B1A60636C012B3F
:102F1000FCD10322254B1A60224A936B012BFCD172
:102F2000013300930121224A22480433FFF76AFE4D
:102F3000052301210093204A2048FFF763FE002269
:102F4000022104201E4BFFF7D1FB002201210520A6
:102F50001C4BFFF7CBFB0022002107201A4BFFF789
:102F6000C5FB002200210820174BFFF7BFFB802381
:102F7000DB000093002200210920134BFFF73CFBEC
:102F80000022104B00210620FFF7B0FB0420FFF7C2
:102F900021FC0E4900F04CF801000020FFF7D2FEA2
:102FA00002B010BD008000403CB0004030B0004096
:102FB000002F685900800240008C864700C0024004
:102FC000001BB70040597307006CDC0240420F0041
:102FD00001480421014B1847E01B0020752D00100B
:102FE000124A936F9B0815D29066D166002905D0CE
:102FF000FFE7FFE7FFE7516F106F704704B58021CF
:103000000906C2175140002800D0C84305F054F902
:10301000002104BDF0B5146E556E576F166FFFF7A3
:10302000E3FF1466556657671667F0BD000000D0D1
:10303000114A936F9B0813D210665166002905D080
:10304000FFE7FFE7FFE7516F106F704704B50028F7
:1030500001D00020C04305F02FF9002104BDC04677
:10306000F0B5146E556E576F166FFFF7E5FF1466D7
:10307000556657671667F0BD000000D094464A4A6F
:10308000926F9208624601D228E0C046F0B5464EE3
:10309000346E756E776F366F00F020F89446424AB2
:1030A00014665566576716676246F0BD94463E4AF9
:1030B000926F9208624601D254E0C046F0B53A4E93
:1030C000346E756E776F366F00F04CF89446364A62
:1030D00014665566576716676246F0BD002B24DB01
:1030E00011D000293EDA00B5C943404200D1013178
:1030F00000F038F8C943404200D10131DB4352426D
:1031000000D1013300BD002AEBD1002801D10029F4
:1031100005D00020C90FC90701D1C043410800B53F
:1031200005F0C2F80022002300BD00B500290ADB2B
:10313000DB43524200D1013300F014F8C94340424E
:1031400000D1013100BDC943404200D10131DB4310
:10315000524200D1013300F005F8DB43524200D166
:10316000013300BD002923D1002B18D1002A0CD037
:10317000BC460D4F38667A6600210023FFE7FFE763
:10318000FFE77A6F386F67467047002801D007481D
:10319000010000B505F088F80022002300BD020000
:1031A0000B00002000217047000000D0FFFFFFFF50
:1031B000002B00D0BFE0130C28D1002AE7D080B448
:1031C000114F39667A66FFE7FFE730B4040C7B6F76
:1031D000396F1B0423433B667A66FFE7FFE7FFE78F
:1031E000C04684B27B6F3D6F1B0423433B667A6607
:1031F000FFE7FFE7C04600232C042D0C7A6F386FE1
:1032000000196941B0BC7047000000D0F0B5944689
:103210000025140E01D112020835140F01D112013C
:103220000435940F01D192000235D40F01D1520020
:103230000135D40B0134254F7C66254C3C660E0CC1
:1032400093B2FFE7FFE7FFE73C6F6643360C770377
:10325000BE467343DF0B5B04C01AB941130C7343C2
:10326000DB18C91ACE086643360CB64493B27343D2
:103270001F0F1B01C01AB941130C73431F0B1B0511
:10328000C01AB941860D8F023E436643360C092DA4
:1032900024DB520A7243801A7703460A6643360CCF
:1032A00016235B1BDE40DF40BF1964466643821B6A
:1032B0007046043506330100D940A840C01900D338
:1032C0000131A24206D20023F0BD0000000000D070
:1032D000FFFFFFFF121B0130F3D3F1E709277F1B2C
:1032E000FE406446A2B27243801A00D20139220C19
:1032F0007243130C1204821A99410B007046043574
:1033000013370100F940A840801900D30131002B88
:1033100002D1A2420AD2F0BD013000D30131121B0A
:10332000FAD2013BF8D1A24200D2F0BD013000D365
:103330000131121BF7E7F0B51C0C00D080E00CB493
:1033400000251C0A04D11B02160E33431202083555
:103350001C0B04D11B01160F3343120104359C0BC7
:1033600004D19B00960F334392000235DC0B02D14F
:1033700092185B4101351C00971864410134464F97
:103380007C66464C3C660E0CFFE7FFE7FFE7C04655
:103390003C6F6643360C7703BE4697B27743C01B3B
:1033A00000D20139C01B00D201399FB27743C91B3B
:1033B000C91B170C77437E04FF0B801BB941CE0855
:1033C0006643360C0C2D33DBB644120B1F053A4313
:1033D0001B0B97B27743C01B00D201399FB27743D2
:1033E000C91B170C77433E043F0C801BB941860D67
:1033F0008F023E43664329277F1BFE400C3D7746E4
:10340000AF40BF1930BCA2B2ABB272437343801A53
:103410009941220C7243130C1204801A9941020044
:103420000B000137001BA941F9D2781E0021F0BD25
:103430000C277F1BFE4077467F0BAF40FF19E0E76C
:1034400000245D1C07D0144F7D663966FFE7FFE757
:10345000FFE7FFE73C6F95B29EB265436643401BB2
:10346000B141150C1E0C6543664336042F0C3E43D8
:103470002D04401BB141994204D202000B002000F0
:103480000021F0BD01D19042F7D3801A9941013457
:103490009942F2D3F6E70000000000D0FFFFFFFFE3
:1034A00048404140484018B4134B5B68019308BD45
:1034B00018B4114B1B68019308BD94460F4A926FD4
:1034C000920805D2624618B40B4BDB68019308BD25
:1034D0000A4AF0B5146E556E576F166F6246FFF7C5
:1034E000F2FF064A1466556657671667F0BD18B4B2
:1034F000014B9B68019308BDE01D0020000000D037
:10350000FFB550404240504059404B40594000E0C8
:10351000FFB5154F4C00640D03D0BC4204D10C0321
:1035200014D80020090D09055C00640D03D0BC42CD
:1035300004D11C030AD800221B0D1B0501264B4099
:1035400009D44B4003D58B4200D18242FFBD994242
:10355000FCD19042FFBD0B43DB1803431343F5D06E
:10356000C9434918FFBD0000FF07000000B5FFF781
:10357000CFFF804100BDC04600B5FFF7C9FF01D9AC
:10358000002000BD012000BD00B5FFF7B9FF01D943
:10359000002000BD012000BD00B5FFF7B1FF804154
:1035A00000BD012040054A00121804D85A00121824
:1035B00001D800207047012070470000002100283A
:1035C00005D17047C1174840401AFAD0C90713B552
:1035D000064B1B6898470CBC441CA2401005120BFC
:1035E0000349091B09051943114310BD582A00203E
:1035F0001F04000010B54C00620D8023D218DB00C0
:10360000D21A5B057E2A10DD9E3A13DACC17090325
:10361000490819435242D140640001341532202A2E
:1036200005DAD0400843604310BD002010BD0846B5
:10363000604310BDC80FC018013810BD18B4024B4C
:103640005B6A019308BD0000E01D002018B4024B26
:10365000DB6F019308BD0000E01D002010B501489C
:10366000FDF7FAFEEC840010132370B51D78012DD0
:1036700019D014DD1D48FFF775FB06001C48FFF745
:1036800071FB1C4C80223100200000F001F9022D5A
:1036900006D01948FFF75EFB184B186070BD154C3B
:1036A000174BA364F5E7174B124C23606360A360CC
:1036B000E36023616361A361E36123626362A362E8
:1036C000E36223636363A363E36323646364A364C8
:1036D000E36423656365A365E36523666366A366A8
:1036E000E36623676367A367E367D9E75344000092
:1036F00053460000E01D00204C330000582A0020F3
:10370000093700105D36001007B5604601880A0AC7
:103710000230DF2AFAD1C9B2820804D30288408875
:103720000004104300E00068014A5050039007BDB8
:10373000E01D002051434343C9188C46110C83B24D
:103740004B4310B4040C614392B280B250436243C5
:103750001C041B0C001910BC59411304120CC01896
:1037600051416144704700004840414048400E4B81
:103770005B6818470C4B1B6818470C4A936F9B08F3
:1037800002D2094BDB681847F0B5146E556E576FBF
:10379000166FFFF7F6FF054A1466556657671667FA
:1037A000F0BD014B9B6818475C2A0020000000D048
:1037B000491A002808D1084670470000C10FC90700
:1037C00000D54042002817D0F44603B40B4B1B68C9
:1037D000984706BC81409E384042803107D20B0694
:1037E00007D04900490AC00510430843604701302B
:1037F000F8E7490A8902F5E770470000582A0020D7
:10380000014B5B6A184700005C2A002010B5014894
:10381000FDF722FE54850010132310B510481C78C4
:10382000FFF7A0FA0100012C0AD003DD80220D4829
:1038300000F02EF80C48FFF78DFA0C4B186010BD05
:10384000084C5422200000F023F82200084980325E
:103850002368002B00D1216004349442F8D1E9E7B9
:10386000534600005C2A00204C330000582A0020F8
:103870000D38001001480421014B1847F01B0020AF
:10388000752D0010014B1B6818470000F01B00202D
:10389000014B5B6818470000F01B00207047C046D2
:1038A000F8B55746DE464E464546E0B599460A9B72
:1038B00007009A460D9B884693460B9C9B073BD17D
:1038C0000C9B9C423DD21E1B0B9415000C005E44C9
:1038D0002A004B46013521002020B847B542F7D1D8
:1038E000A0460B9C002C20D0454636195346321B6F
:1038F000013C185D29004B46B847002CF6D12B003F
:10390000350098460D9B9B070FD55B46EC1A0C9B28
:10391000A3420AD9464698462A004B463100202049
:103920000134B84701354445F6D32800F0BCBB4606
:10393000B246A946A046F8BD16001500002CD3D10A
:10394000E0E716001500002CCED1EEE7F0B54546B5
:10395000DE4657464E46E0B585B09C4610AB1B7818
:10396000149F934698460F9C129E139DBB074CD400
:10397000002D42D1B44248D201233B4099460E9BD0
:10398000013B9A46302304E0524601341355A642C7
:1039900001D9202CF8D14B46002B00D183E00E9B9F
:1039A000013B99463023A54205D82EE04A46013412
:1039B0001355AC4229D0202CF8D1FB060CD57B0541
:1039C00054D4A64263D0A54261D0119B102B50D095
:1039D000022B57D0202C32D1202301930E9B5A4624
:1039E0000093039763460295FFF75AFF05B0F0BCBA
:1039F000BB46B246A946A046F0BD01233B409946CE
:103A000001233B422AD1B442B9D3FB061CD57B0526
:103A1000DBD4002CD5D1119B102B5BD0119B022B3A
:103A20006BD0302301240E9A13704346002B10D123
:103A30007B073ED52B260E9A631C1655CDE7230037
:103A4000013430260E9AD654202CC5D04346002B84
:103A5000EED02D260E9A631C1655BEE74346002B6A
:103A60002FD0013DB44200D289E798E7119B102B7B
:103A7000B2D1BB0637D5202CAED058230E9A1355A1
:103A80000134A7E7202CA7D02300013407E0631EF0
:103A9000012CC0D0119A102A31D0022AD1D162262D
:103AA0000E9AD65496E7FB06CED57B0500D488E760
:103AB0008BE723003E0790D520260E9A013316553A
:103AC0008BE70C233B405A1E9341ED1AB44200D2BF
:103AD00055E764E7BB060ED478230E9A02241370D0
:103AE00030235370A1E7202C00D175E778230E9A7C
:103AF000135501346EE75823EFE76033EDE70E9A74
:103B0000A61E91464E44BA0602D55822327098E756
:103B10007822327095E7C04610B5002800D110BD5C
:103B200001F082FCFBE7C0460B0010B5002802D074
:103B300049681B68984710BDF0B55746DE464E46AB
:103B40004546E0B595B083460F00924698461E9ACA
:103B50001F9B10001900209EFFF723FD002800D0B6
:103B6000EAE11E981F990122C54B5242FFF7FEFC65
:103B7000002800D014E11E981F990122C14B524227
:103B8000FFF70AFD002800D0E9E01E981F990022E7
:103B9000BD4BFFF701FD002800D0C8E01E981F991B
:103BA0000022BA4BFFF7E2FC002800D0BFE01E98CD
:103BB0001F9900220023FFF7D9FC002800D0E4E081
:103BC00000230B93229B5B0500D4062600243023A0
:103BD00007E0172106AA013452181355013E202C84
:103BE00001D0092EF5D81E981F99FFF703FDA84BA9
:103BF000F2009B181A685B68050008920993FFF7AA
:103C0000E1FC02000B001E981F99FFF74CFC089A7C
:103C1000099BFFF76CFC06900791FFF70FFD8146AB
:103C2000FFF7CCFC02000B0006980799FFF73BFC5E
:103C30000022984B06900791FFF7AEFC002800D1B8
:103C40000DE101239C46E1444846FFF7B7FC020022
:103C50000B0008980999FFF78FFC002802D0002379
:103C600099460135002E00D1D9E006954D46B9465A
:103C700014E006AA944617230A216344280001345D
:103C80001F19FFF7D5F93031397028000A21013E9C
:103C9000FFF7CEF9092D00D817E10500202CE8D157
:103CA0004F46069D20240CAE06AA17239446634473
:103CB00099465B46B34606930FE04B4628000A211F
:103CC0000134E618FFF78CF93031280031700A21F1
:103CD000FFF786F9051E00D1E4E0202CEDD1069B0C
:103CE0005E469B460323229A1340012B18D1219B49
:103CF000002B15D00B9B002B00D1FDE0219B013B3D
:103D00002193202B0CD93023219A07E0172006A9F4
:103D1000013409180B55944200D3CCE0202CF5D186
:103D2000229B01940393219B0096029322E0229B05
:103D300052460493219B3900039358461E9B1F9CB7
:103D4000029600930194434600F04AF904002000D3
:103D500015B0F0BCBB46B246A946A046F0BD229BBA
:103D60005B070FD403224C4B2299019203912199B6
:103D7000009302914346524639005846FFF790FDA2
:103D80000400E4E70422454BEEE71E9A1F9B002047
:103D90000021FFF788FB01231E901F910B9311E771
:103DA000229B54469B0711D1219B042B0ED9219BAA
:103DB00055469C465E46043C64442A004346013511
:103DC00039002020B047A542F7D1B346344D260034
:103DD0002B1F99465B46A3461C003200E8784346F9
:103DE0003900013DA04701364D45F6D123005C4620
:103DF0009B46229B04349B07A9D55346219AE31A7C
:103E00009A42A4D95E46150022004346390020207C
:103E1000B04753460134E31A9D42F5D897E728008E
:103E2000FFF7D0FB02000B001E981F99FFF73BFB2A
:103E30000022184B06900791FFF798FB0CAE002864
:103E400000D031E7069807990022124BFFF7A4FB38
:103E5000002800D028E7012301359D4324E70022F4
:103E6000069807990B4BFFF781FB002800D0F9E675
:103E70004B46002B5CD101239C46E144F2E6C04650
:103E8000FFFFEFFFFFFFEF7F65CDCD4165CDCDC1DA
:103E9000D88B00100000E03F5885001050850010BE
:103EA00060850010069B5E469B460323229A1340C2
:103EB000012B00D181E0202C00D131E70B9B002B9E
:103EC00027D02D23335501342AE74F46069D202C59
:103ED00000D1E7E63022331907E0172006A90134A4
:103EE00009180A55202C00D1DCE6A342F5D12E2278
:103EF0000CAE0134F254D7E60C23229A134257D069
:103F0000219B013B2193A34200D9FCE6202C00D148
:103F100006E7229B5B0703D52B2333550134FFE6CD
:103F2000229B1B0700D4FBE6202333550134F7E620
:103F3000DB0700D496E69EE7229B55469B0711D1EE
:103F4000219B032B0ED9219B54469C465E46033D84
:103F5000654422004346013439002020B047AC427A
:103F6000F7D1B346B9465F461C4EEC1C2A00B07828
:103F7000434649460135B847013EAC42F6D1229B43
:103F8000BB464F469B0700D4E1E65346219AE31A0D
:103F90009A4200D8DBE65E4615002200434639000F
:103FA0002020B04753460134E31AAB42F5D3CEE6A6
:103FB000219BA34200D9A6E6B2E6219B002B00D1AB
:103FC00079E70B9B002B97D0219B013B21939C42CF
:103FD00000D298E6202C00D073E7A1E65C850010A3
:103FE000F0B5DE4657464E464546E0B599B08146A7
:103FF0008B4692469846229A239B10001900FFF7A1
:10400000D0FA002800D0CAE0229823990122824BDE
:104010005242FFF7C1FA002800D0C0E0229823994D
:1040200001227E4B5242FFF7A1FA002800D0B6E0F1
:104030002298239900220023FFF798FA002800D045
:10404000C9E1229B239C089309940898099980232D
:10405000269ADB001A400D928022269C1201144001
:1040600022000B94269C07000E001C4200D0ADE0FD
:104070000B00034300D0D5E0002A00D00AE2220062
:1040800006332493022313400C930223134200D0DF
:1040900002E2259B042B00D20FE2043B0B9300238A
:1040A00004250A930022229823990023FFF75EFA41
:1040B000002800D003E25A4B269A134004930B9B2E
:1040C0000393249B0293089B099C009301945946F7
:1040D000434652464846FFF72FFD02002020269B0C
:1040E0001F27034059424B415B421840531C089321
:1040F000594643464530C8470A9AD317D4185C40FE
:10410000D30F0A936B1E0B9308AB9C4600256744A4
:1041100001E0202D0FD020000A21FEF789FF013594
:104120007E193031317020000A21FEF781FF260010
:104130000400092EEDD8052306930B9B59460593E1
:10414000002304930A3303930A9B4846029310AB5F
:104150000093089A43460195FFF7F8FB0C9B002B50
:104160002DD05346C41A259BA34228D94D465F46FD
:1041700081461E00534639001A1920204346013457
:10418000A847A642F6D8534648462599C21A013296
:104190000023914200D386E1013018180FE0269BDE
:1041A0000493259B0393249B0293229B239C0093BF
:1041B00001944346524659464846FFF7BDFC19B0A4
:1041C000F0BCBB46B246A946A046F0BD01432BD188
:1041D0000B9B2200002B00D154E700230A93249B61
:1041E0000A9A0024934200DD85E122982399002257
:1041F0000023FFF7BBF9002800D035E1269B084AD1
:1042000002941A408023DB0013430493259B0393FD
:10421000089B099CCBE7C046FFFFEF7FFFFFEFFF46
:10422000FFF7FFFF06232493B44B70009C46400D1C
:104230006044FFF7C7F9B24AB24BFFF758F9B24AE8
:10424000B24BFFF735F93603B14B360B334304005D
:104250000D00380019000022AE4BFFF724F9AE4ADA
:10426000AE4BFFF744F902000B0020002900FFF7D6
:104270001FF9FFF7BFF90A90FFF7A4F9A84AA94B65
:1042800004000D00FFF733F90022A74BFFF710F9E8
:10429000FFF7B0F9A54A0600A54B20002900FFF75B
:1042A00026F9040030000D000C96FFF78BF9A14AA7
:1042B000A14BFFF71CF902000B0020002900FFF7BB
:1042C000F2F802000B0006000F00FFF710F93200B1
:1042D00004000D003B0030003900FFF7E9F8002230
:1042E0000E900F91954B20002900FFF7E6F8002271
:1042F000934BFFF7DDF802000B0020002900FFF7C9
:10430000DCF800228F4BFFF7D3F802000B002000EF
:104310002900FFF7D2F80D008021040032003B0095
:104320000020C905FFF7BFF802000B00200029009C
:10433000FFF7BEF802000B000E980F99FFF7BDF8CB
:104340000022734BFFF7B4F87F4B0C9C9C466444EF
:1043500000222305FFF7CBF806000F0002000B0038
:1043600008980999FFF702F900280AD00A9B300043
:10437000013B39000A930022714BFFF79EF80600BB
:104380000F000A9A330063323900C62A12D802227B
:104390002698042510400B9A0C90002A25D1259BC5
:1043A000042B05D9002800D0A1E0259B043B0B93EA
:1043B000042541E00222269810400B9A0C90002A16
:1043C00012D1259B052B76D9002872D1259B052576
:1043D000053B0B9334E0802212069446229B0893FF
:1043E000239B6344099330E605250B4300D1F6E691
:1043F00008980999554A564BFFF7C6F8002808D087
:10440000089809990022534BFFF7B0F8002800D014
:10441000E5E6249B002B1CD00D9B002B19D0249B80
:10442000013B2493259BAB4204D90C9B002B5AD013
:1044300002230C9300230B930A9B002B00D131E63F
:104440000898099932003B00FFF737F80890099166
:1044500028E6259BAB42EDD90C9B002B43D00023D3
:104460000B9302330C93E7E78020269B3A4A000621
:104470001A40802384460294089C099D2900DB0091
:1044800013430493259B6144220003930B00009285
:1044900001938EE60524A8E600230B930A930233CA
:1044A00004250C93FEE553468C46013B63441B1ADE
:1044B00072E602230C930525C2E70423EDE5802074
:1044C000089E099F000639008446269A224B6144C3
:1044D000134004930B9B32000393249B02930B0025
:1044E00000920193F3E5259B5B1B0B93A4E702234A
:1044F00004250C93A0E79C1A013C76E601FCFFFF23
:10450000FB799F501344D33FB3C8608B288AC63FC2
:104510000000F03F0000F83F61436F63A787D23F80
:1045200071A379094F930A400000E03F1655B5BBCF
:10453000B16B0240EF39FAFE422EE63F00002C40FC
:104540000000244000001840FF0300002D431CEB36
:10455000E2361A3F80842E41FFF7FFFFF0B5DE46BA
:1045600057464E464546E0B5A5B01E002E9B9246E6
:104570000C93CD4ACD4B80468B461A60002900D162
:10458000EAE1002330789946002800D1ECE1C84BDD
:104590004C460B93C74B454657460E930AE0631CA7
:1045A000984622003B005946A847444630780028E8
:1045B00000D187E001362528F1D108239A46043B33
:1045C0009946023B9846013B00229C460D94307868
:1045D000711C0300203BDBB2102B03D80B9C9B000B
:1045E000E3589F460300303B89460D9C092B3AD97E
:1045F000002398462A2800D1C1E000239A462E289D
:104600004BD00300683BDBB2122B1ED80E999B00E7
:10461000CB589F4663460E001A43D8E743460E0028
:104620001A43D4E74B460E001A43D0E710230E007E
:104630001A43CCE753460E001A43C8E780235B00B9
:104640001A43FF3B9C467078E1444E4667284FD89A
:104650002428A4D90300253BDBB2422B9FD89649DE
:104660009B00CB589F46002394461E0000E001317A
:10467000B3009B195B001E180878303E0300303BE6
:10468000092BF4D90123624689469C460023B04693
:104690009A460E00E1442E28B3D1302180204942B1
:1046A0008C46C000024370784B4684446146092919
:1046B00000D86CE12A2800D17AE101239C464E46BD
:1046C000E1449EE7A146A846BA46CA4503D801235D
:1046D0005B425344994653464A4659460020C047D8
:1046E000200025B0F0BCBB46B246A946A046F0BDAE
:1046F0000300693BDBB20D930F2B00D94FE701217B
:1047000099408C466D49894661464B4619400F9148
:10471000634649460B4200D028E10D9B0A2B3AD054
:10472000072B00D03BE70C9B190008C98846002BDB
:1047300000D14BE121200243914614A98C461F224F
:104740000F2162448C4651460D950C91A2461500EE
:104750000F9902E020290CD0130064461C40200071
:104760003730092C00D80738013168541A090F2B4B
:10477000F0D80C9B54460D9D9A460F9133E10C9B4B
:1047800002CB8846002947DB0C9301239C467078B6
:104790004E46E14431E70C9B02CB14935346002B69
:1047A00000D138E19C4608780B000C908C4400281E
:1047B00001D100F098FC89466146944603E05A789E
:1047C0000133002A01D08B42F9D1494662465B1A77
:1047D0000C900F93530500D520E1022318001040E0
:1047E0000D90134200D1CBE30D930B1BB1469A46BB
:1047F0005E460C9822003B003100A8475346013426
:10480000185D0028F6D1B3464E460D9B002B00D014
:10481000C7E1149B0C93C9E60C9301239C462838EE
:1048200049420243884670784E46E144E5E6707896
:104830006C2800D17FE180235B001A43FF3B9C463C
:10484000E14402E780239B001A4301239C467078D1
:10485000E144FAE67078682800D173E180231A43B6
:104860007F3B9C46E144F0E6672800D103E14728FE
:1048700000D15AE1452800D15AE10492072142466D
:104880000C9B0392073352468B43190002920CC9CA
:104890002800009201930C9122003B005946FFF73B
:1048A0009FFB040082E6C0465D4500100C2A0020F4
:1048B0003C8A0010808A0010CC8A001041900000D1
:1048C000462800D1DBE00492072142460C9B03926C
:1048D000073352468B43190002920CC928000092FC
:1048E00001930C9122003B005946FFF725F9040083
:1048F0005CE6631C984622003B0059462520A847E9
:10490000444653E60C9B04330D93631C994692076F
:1049100000D422E10C9B2200187859463B00A8479E
:1049200043464444012B00D885E23300B8462E00AC
:104930005F4625004C469946220043460134390023
:104940002020B047AC42F7D12C00BB46350047468B
:104950004E460D9B0C9329E6DB4B3078984600239E
:104960009946002800D012E60024AEE66F2800D158
:1049700088E000D80BE31023782800D1CFE09A43D9
:104980000A239C4600230F930A330D9380E056467A
:10499000B1008919490001330E181878303E010022
:1049A00030390929F4D9B2461E000133994628E668
:1049B0000C9B023602CB8A46C9435046C9170840B1
:1049C00082460C933078731C99461AE61023100027
:1049D000984311331843814680201300C0000340E0
:1049E000024200D1A9E64B4606930823059353469D
:1049F000049310230393002302930F9B220001933F
:104A00001CAB009359463B002800FEF79FFF43462E
:104A100004000C93CAE501235B42C3E60F9B534598
:104A200001D953460F930223180010400D901342F2
:104A300000D1B7E10D93D1460B1B9A463300A14438
:104A40002E0022004D460C98B9465F469B4608E072
:104A50004B463900541CB0475346185D002877D0A8
:104A600022009542F4D15B46BB464F46A94635002D
:104A70004C461E00C9E680231B011A43FDE6202395
:104A80001A4320E708239C4600230F9308330D9315
:104A900080231100DB0019401A4200D116E10D23DA
:104AA0009A431000802302009B001A40149218427F
:104AB00000D0C2E1802302005B001A4091460C9AAC
:104AC00004320F92184200D0B7E2430600D59FE1AE
:104AD000030600D419E30C9B1B880993002B00D01C
:104AE000FCE110339843002900D1F7E100239946F7
:104AF00043460593534604930D9B0690039300236E
:104B0000D2E0582808D0622867D102239C460023AF
:104B10000F9302330D93BBE720231A43103B9C46AF
:104B200000230F9310330D93B2E780231B011A4328
:104B300020231A43A1E6C0239B001A43F31C994685
:104B4000B07882E5C0231A43F31C9946B0787CE51F
:104B500035005E46BB464F4657E64346012B00D81C
:104B600063E1631E43449A463300B9462E005F4614
:104B700055469B46A24622004B4601343900202070
:104B8000B047AC42F7D135005E46BB464F46A14622
:104B900054460C9B4A46187859463B004444A84763
:104BA000D7E6A1460F9B984500D832E64444E41A64
:104BB0003300B8462E005F4625004C469946220039
:104BC0004346013439002020B047AC42F7D12C00D5
:104BD000BB46350047464E461BE680231000DB00EF
:104BE00018401A4200D10FE1112118008A430D929A
:104BF0000D9A802311009B0019408C461A4269D1FE
:104C0000802311005B00194089460C9904310F91F3
:104C10001A4200D0CAE113005B0600D5F0E0130091
:104C20001B0600D459E20C9B00229B5ED9175A1830
:104C30004A4092B2D90F0C91002B00D1F9E110003B
:104C400014AA944642461F23149252466344A8462F
:104C500016944D460400B946B2461F00159201E075
:104C6000202D0FD020000A21FEF7E2F901357E1930
:104C70003031317020000A21FEF7DAF926000400F5
:104C8000092EEDD8149B4F46A94645469846159BDC
:104C900056469A46169C0D9B0693434605935346EB
:104CA00004930A2303930C9B02934B4601931CAB82
:104CB0002200009359463B002800FEF747FE0F9B59
:104CC00004000C9372E4C0469D3800100C239A43F4
:104CD0001000E7E607220C9B07339343013294460A
:104CE0009C4462460C920CCBD90F0F9111001943D2
:104CF00000D191E0D917139112915140109113995D
:104D00005940119110981199129A139B801A994148
:104D10001090119114AA0023944642469946149289
:104D200052461F336344A846B24616944E46109C22
:104D3000119DB94615921F0001E0202E10D02000D1
:104D400029000A220023FEF7B1F9013630322B0088
:104D5000BA550D0022000400002BEED1092AECD830
:104D6000149B1094119545469846159B4F46B146A5
:104D700056469A46169C0D9B06934346059353460A
:104D800004930A2303930F9B02934B4601931CAB9E
:104D90002200009359463B002800FEF7D7FD04008F
:104DA000FFF704FC0F9B984500D8C1E18023DB008E
:104DB0000D9343460F9A1B199B1A994633002E00F8
:104DC0004D46B9465F469B460C9122004B46013446
:104DD00039002020B047AC42F7D143460C9901334B
:104DE0000F930B7835000C935E46BB464F46002B65
:104DF00000D10EE50D9B002B00D1F6E4002319E64F
:104E00000C9B1B781A0015E710239A430D92EFE6CE
:104E10000C9B1B78099361E6002399460028AAD1D0
:104E2000002200231092119374E70C9B2200187843
:104E300059463B00A8474C468BE50C9AFA3BFF3B92
:104E400007329A430133994691444B460C931368B9
:104E5000526815921A4306D11032904300220992EB
:104E6000002900D081E06122810600D54122D2B222
:104E70000A9214AA91460A9A00210A3A14924246CA
:104E80001792524618925A460991B3461F311E0096
:104E90000F9B4944BA4619941A95002467469846D0
:104EA0008946159D16901B920AE03032D2B24B46CD
:104EB00001341A55A8454AD0202C4AD006000D00CE
:104EC0003A00002330002900FEF7F0F8D2B2092A98
:104ED000EBD9149B9C466244D2B2E8E76123820678
:104EE00000D54123DBB20A3B0C93434614A91F2291
:104EF0008C46159353466244A046B2464C461797DB
:104F0000A9461700099D0D9E1490169308E03033B2
:104F1000DBB201343B55B5420ED3202C0CD005003A
:104F200031002800FEF784F8CBB20929EFD90C9A9A
:104F300094466344DBB2ECE7159B4D46A1464446DC
:104F40009846169B564614989A46179FD0E5B74246
:104F5000B2D9179B57469846189B5E469A461B9BAC
:104F600009949B461698199C1A9D434605935346EF
:104F700004930D9B0690039300230293099B05E77E
:104F80000F9B984500D914E701330F932DE41023AC
:104F9000110099430D91692800D0BAE080231000D8
:104FA000DB0018401A4200D122E61DE60C9B1B686C
:104FB000DA0F1100002B00D18CE0DA17981850405E
:104FC00014AA914642461F23149252464B44A046CF
:104FD000A946169704006546B2461F000C9115922B
:104FE00001E0202D0FD020000A21FEF721F8013525
:104FF0007E193031317020000A21FEF719F82600A1
:105000000400092EEDD8149B444698460C9BAC46F0
:105010001900159B56464D469A46169F0D9B0291C8
:10502000069343460593534604930A23039363462A
:105030003CE6002800D02EE602E60C9B1B68994651
:10504000002B03D110339843002938D16123820605
:1050500000D54123DBB20A3B0C93434616935346DB
:1050600014A91F228C4617932B006244A0464D467C
:10507000B246189799461700149C0D9E159008E0AB
:105080003033DBB201343B55B5420ED3202C0CD06B
:10509000050031002800FDF7CBFFCBB20929EFD97D
:1050A0000C9A94466344DBB2ECE7169B1494444696
:1050B0009846179B56464D469A461598189F434664
:1050C0000593534604930D9B06900393002302938C
:1050D000149BEBE50028A1D172E70C9B1B68D91744
:1050E0005A184A40A6E580231000DB0018409C4671
:1050F0000F901A420FD00220030013400F9310426A
:1051000019D00023A1460F934CE50C9B1B68099313
:10511000E4E40A0034E40223180010400D90134226
:1051200000D03EE54346002B00D042E6FFF771FB7E
:1051300001330F937FE463460D93F3E710B50C0042
:1051400084B00394012402A9029000930348130041
:105150006242FFF703FA04B010BDC046293B0010BD
:1051600010B5094A0300146884B0002C08D001224D
:1051700000910648524203A9A047012004B010BD87
:1051800000F09CF90020F9E70C2A0020193B0010E0
:1051900000BEFDE710B5FFF7FBFFC04670B5FDF799
:1051A00047FE074D074EB54209D20024013E761B4B
:1051B000B60808CD984723000134B342F9D170BD39
:1051C000848300108C830010030010B508001100C8
:1051D0001B68984710BDC046F0B5C64600B5437D74
:1051E00007000C001600002B46D0002A17DD0B78B4
:1051F0000A2B24D000239846012E13D00125290024
:10520000635C01350A2B26D0B542F8D1464509DC4E
:10521000A419013C23780D3B5A4253413B7580BC95
:10522000B846F0BD4346E018A419F11A013C3B68AA
:10523000984723780D3B5A4253413B75EFE7037D76
:10524000002BD7D102210F483B689847012EDFD0B1
:1052500001239846D2E7631E5B5C0D2BD4D08845B2
:1052600004DA4346C91AE0183B689847022105480A
:105270003B68A8469847C7E7036811002000984795
:10528000CDE7C046288C0010F0B5C6460B68060076
:105290000C0000B5802B06D05A1C2260E418267141
:1052A00080BCB846F0BD0F4B1D68002D16D00B1DFD
:1052B00098460D4F02E02D69002D0FD02B68002B72
:1052C000F9D03B68002B01D0AB42F4D12800414615
:1052D0002268FFF781FF2D69002DEFD10122002305
:1052E000DBE7C046F4250020FC250020F0B545464C
:1052F000DE464E465746E0B583B091461C008046D8
:105300000D00FDF79BF80023304A12184B41002B8B
:1053100002DA01222E4B52422E4908008A4602F040
:10532000EBFF07006B1C03D1404602F07DFF050038
:10533000002C27D0284E294B1C68002C18D04B4637
:10534000002B21D1264B994602E02469002C0FD076
:105350002368002BF9D04B461B68002B01D09C42E0
:10536000F3D120002A004146B0472469002CEFD138
:10537000002F26D1280003B0F0BCBB46B246A94698
:10538000A046F0BD174ED6E7154B99460A239B461B
:1053900002E02469002CEBD02368002BF9D04B46A7
:1053A0001B68002B01D0A342F3D12A004146200004
:1053B000B0476B465A462000DA71D91D0122B0472A
:1053C000E7E7504602F068FFD4E7C04640420F00CE
:1053D000FFFFFF7F501C0020D9510010F425002052
:1053E000FC250020C95100100A4A1368002B05D182
:1053F0000CE01A001B691032002B07D08342F8D151
:10540000002902D118691060196170470029FCD089
:105410001060FAE7F425002010B500F0ADF900F0B7
:10542000E9FB012010BDC046F0B5CE46474680B529
:1054300083B06B460600DD1D2870FCF7FFFF0023DC
:10544000194A12184B41002B02DA0122174B524223
:1054500017490800884602F04FFF164B81461C682A
:10546000002C14D0144F02E02469002C0FD02368C4
:10547000002BF9D03B68002B01D09C42F4D12000D6
:1054800001222900FFF7A8FE2469002CEFD14B462A
:10549000002B05D1300003B0C0BCB946B046F0BD0A
:1054A000404602F0F9FEF5E740420F00FFFFFF7FA4
:1054B000501C0020F4250020FC25002070B50400BD
:1054C00002F0B2FE01230100050001222000FFF7D7
:1054D0000DFF084B1C68002C06D06368002B05D01C
:1054E00098472469002CF8D1280070BD2469002C4D
:1054F000F3D1F9E7F4250020F0B5CE46474680B554
:10550000A3B004000D00FCF799FF0023274A1218EE
:105510004B41002B02DA0122254B5242254E30002E
:1055200002F0EAFE00232200019307002B0022482C
:1055300001A9FFF703FE214B804699461C68019B99
:10554000002B1AD0002C2FD01D4D02E02469002C16
:105550000FD02368002BF9D02B68002B01D0A34279
:10556000F4D12000019A02A9FFF736FE2469002C2D
:10557000EFD14B461C6800230193002C06D06368D2
:10558000002B0BD098472469002CF8D1002F07D1AD
:10559000404623B0C0BCB946B046F0BD2469ECE734
:1055A000300002F079FEF3E70194EFE740420F008C
:1055B000FFFFFF7F501C002089520010F4250020BF
:1055C000FC2500200FB400B583B004A901C90191E6
:1055D000FFF792FF03B008BC04B01847F0B50029EC
:1055E00015DD0E4B0D271A680D4B0E4CD3185D427E
:1055F0006B41451820215B001E5F0478A64207D04E
:1056000093691942FCD101301460A842F5D1F0BD74
:1056100093691942FCD11760F2E7C0466C2B002059
:105620000080FCBF682B0020204B70B504000D1ECD
:105630001E682ADD002010211D4B013C1A68936969
:10564000194214D1013093691942FCD113682354D3
:105650008542F4D1002E08D050239363516B183B40
:105660000B4014498C4662441360280070BD002E24
:1056700008D050239363516B183B0B400D498C4667
:10568000624413600028F1D10CE0002E0AD05022B1
:10569000074B1B689A63596B183A0A4005498C46B8
:1056A00063441A6003204042E0E7C046882500209A
:1056B0006C2B002034100000064B10B51B68002B2B
:1056C00006D00021044A12689163044A1068984782
:1056D00010BDC046882500206C2B0020902500209E
:1056E0000822034B19688B691A42FCD17047C046E7
:1056F0006C2B0020F8B51A4F1A4B3A680500D318E6
:1057000058424341184E14331C003368002D02D018
:10571000002B0FD0F8BD002BFCD00021200095639A
:10572000FBF76CFF20001149FCF7C4F8104B356003
:105730001D60EFE70E4B200019600C493560FBF748
:1057400095FF01212000FBF759FF50223B689A6327
:10575000596B183A0A4007498C4663441A60D9E7E6
:105760006C2B00200080FCBF88250020B95600105B
:1057700090250020341000000D4B10B51B780D4B08
:105780000D4C1B780D4B02211B780D4B0020236024
:10579000FBF792FD02210120FBF78EFDE12120683D
:1057A0004902FCF799FE01210648FFF71DFE10BDD6
:1057B000D08E0010CC8E00106C2B0020C88E0010F4
:1057C00000400340001C00207047C0460022014BEF
:1057D0001A707047882B00204B790020FF2B0BD1CB
:1057E0008B79002B08D1CB79012B05D1082A03D95D
:1057F000024B8A7809301A707047C046882B002007
:105800000120704710B5012913D11249537910793D
:1058100009781B0203430020994200D010BD537841
:10582000012B08D0022BF9D1642200210020FDF7C2
:105830003BFA0120F2E7D37891781B021943480A1A
:10584000DB0501D4012040427F238A05D20F194095
:10585000FDF7C0FA882B002000487047108D00101B
:1058600070B5050014000120012909D153780020EA
:10587000012B05D1637912791B021343072B00D04A
:1058800070BD21002800024A9F3301F055FAF7E766
:10589000688C00100123037000487047488C00108A
:1058A0004B780A781B0213438A7810B512041A4306
:1058B000CB781B0613439622D200934200D010BD32
:1058C0000022012011004042FDF784FA024B1860CB
:1058D000024B19607047C0468C250020942500209B
:1058E00010B5024B1878FBF7A7FE10BD892B0020DE
:1058F000154B70B51A68002A22D0EFF3108172B6EA
:1059000010680028FCD0BFF35F8F00200F4A596059
:1059100010701B68BFF35F8F186081F3108800243C
:1059200000250B4E3078FBF77BFE002804D10024C5
:1059300000252900200070BD3078FBF77DFEF8E7D8
:10594000FA240025A400ECE7302A00208B2B00204D
:10595000892B002070B5040000200E0001F00AFB26
:10596000002834D0002001F01BFB00282FD0FCF7CA
:1059700065FD0023174A12184B41002B16DB164D0C
:10598000280002F0B9FC002821D0002001F0F2FA32
:1059900000280FD101200021404200F001FD032426
:1059A0006442280002F078FC200070BD01220B4BFD
:1059B0005242E4E7002001F0F3FA0028EAD0210087
:1059C0003200002001F0F6FA041EEAD1E7E70324D2
:1059D0006442E9E740420F00602B0020FFFFFF7F99
:1059E00010B5FCF72BFD00230D4A12184B41002B7C
:1059F00002DA01220B4B52420B4C200002F07CFCDD
:105A000000280CD001200021404200F0C9FC0020F9
:105A100001F014FB0028F5D1200002F03DFC10BD80
:105A200040420F00FFFFFF7F602B0020F8B5DE46ED
:105A3000574680B505000C00FCF700FD0023364AF0
:105A400012184B41002B02DA0122344B52423449E6
:105A500008008A4602F050FC002803D1C0BCBB46B7
:105A6000B246F8BD002001F085FA00284AD0002691
:105A7000002C43DD2B4B9B4614E0A919002001F0BC
:105A800017FB070001200021404200F089FC0020A4
:105A900001F0D4FAFCF7D2FC224BF61918605960D9
:105AA000B4422BDD002001F023FBA71B0200B8420B
:105AB00000DD3A00002AE0D101200021404200F040
:105AC0006FFC002001F0BAFA002001F053FA002820
:105AD00014D0002001F00CFB0028E1D1FCF7AEFC53
